{
  "contractName": "Array",
  "abi": [
    {
      "inputs": [
        {
          "internalType": "uint256",
          "name": "x",
          "type": "uint256"
        }
      ],
      "name": "agregarNumero",
      "outputs": [],
      "stateMutability": "nonpayable",
      "type": "function"
    },
    {
      "inputs": [],
      "name": "mostrarArray",
      "outputs": [
        {
          "internalType": "uint256[]",
          "name": "",
          "type": "uint256[]"
        }
      ],
      "stateMutability": "view",
      "type": "function",
      "constant": true
    }
  ],
  "bytecode": "0x608060405234801561001057600080fd5b50610277806100206000396000f3fe608060405234801561001057600080fd5b50600436106100365760003560e01c806315a833731461003b578063f1dc715d14610059575b600080fd5b610043610075565b60405161005091906101c1565b60405180910390f35b610073600480360381019061006e9190610214565b6100cd565b005b606060008054806020026020016040519081016040528092919081815260200182805480156100c357602002820191906000526020600020905b8154815260200190600101908083116100af575b5050505050905090565b600081908060018154018082558091505060019003906000526020600020016000909190919091505550565b600081519050919050565b600082825260208201905092915050565b6000819050602082019050919050565b6000819050919050565b61013881610125565b82525050565b600061014a838361012f565b60208301905092915050565b6000602082019050919050565b600061016e826100f9565b6101788185610104565b935061018383610115565b8060005b838110156101b457815161019b888261013e565b97506101a683610156565b925050600181019050610187565b5085935050505092915050565b600060208201905081810360008301526101db8184610163565b905092915050565b600080fd5b6101f181610125565b81146101fc57600080fd5b50565b60008135905061020e816101e8565b92915050565b60006020828403121561022a576102296101e3565b5b6000610238848285016101ff565b9150509291505056fea2646970667358221220294c892076d035297c330ed3a1372bd87ca4997024566a0102ad5f95c650512364736f6c634300080b0033",
  "immutableReferences": {},
  "source": "pragma solidity ^0.8.11;\n\ncontract Array{\n    uint[] numeros;\n\n    function agregarNumero(uint x) public{\n        numeros.push(x);        \n    }\n    function mostrarArray() public view returns (uint[] memory){\n        return numeros;\n    }\n}",
  "sourcePath": "/home/cristian/Documentos/Cursos/15_dApps/Proyecto3/arrayProyect/contracts/Array.sol",
  "compiler": {
    "name": "solc",
    "version": "0.8.11+commit.d7f03943.Emscripten.clang"
  },
  "schemaVersion": "3.4.4",
  "updatedAt": "2022-01-24T02:55:33.742Z",
  "networkType": "ethereum",
  "devdoc": {
    "kind": "dev",
    "methods": {},
    "version": 1
  },
  "userdoc": {
    "kind": "user",
    "methods": {},
    "version": 1
  }
}